{
  "_format": "hh-sol-artifact-1",
  "contractName": "VanarRouletteHandler",
  "sourceName": "contracts/VanarRouletteHandler.sol",
  "abi": [
    {
      "inputs": [],
      "stateMutability": "nonpayable",
      "type": "constructor"
    },
    {
      "anonymous": false,
      "inputs": [
        {
          "indexed": true,
          "internalType": "address",
          "name": "userAddress",
          "type": "address"
        },
        {
          "indexed": true,
          "internalType": "address",
          "name": "nftAddress",
          "type": "address"
        }
      ],
      "name": "MintingERC721",
      "type": "event"
    },
    {
      "anonymous": false,
      "inputs": [
        {
          "indexed": true,
          "internalType": "address",
          "name": "previousOwner",
          "type": "address"
        },
        {
          "indexed": true,
          "internalType": "address",
          "name": "newOwner",
          "type": "address"
        }
      ],
      "name": "OwnershipTransferred",
      "type": "event"
    },
    {
      "inputs": [
        {
          "internalType": "address",
          "name": "userAddress",
          "type": "address"
        },
        {
          "internalType": "address",
          "name": "nftAddress",
          "type": "address"
        },
        {
          "internalType": "uint256",
          "name": "transactionNumber",
          "type": "uint256"
        }
      ],
      "name": "mintERC721",
      "outputs": [],
      "stateMutability": "nonpayable",
      "type": "function"
    },
    {
      "inputs": [],
      "name": "owner",
      "outputs": [
        {
          "internalType": "address",
          "name": "",
          "type": "address"
        }
      ],
      "stateMutability": "view",
      "type": "function"
    },
    {
      "inputs": [],
      "name": "renounceOwnership",
      "outputs": [],
      "stateMutability": "nonpayable",
      "type": "function"
    },
    {
      "inputs": [
        {
          "internalType": "address",
          "name": "newOwner",
          "type": "address"
        }
      ],
      "name": "transferOwnership",
      "outputs": [],
      "stateMutability": "nonpayable",
      "type": "function"
    }
  ],
  "bytecode": "0x608060405234801561001057600080fd5b5061001a3361001f565b61006f565b600080546001600160a01b038381166001600160a01b0319831681178455604051919092169283917f8be0079c531659141344cd1fd0a4f28419497f9722a3daafe3b4186f6b6457e09190a35050565b61061d8061007e6000396000f3fe608060405234801561001057600080fd5b506004361061004c5760003560e01c806302df543314610051578063715018a6146100665780638da5cb5b1461006e578063f2fde38b1461009a575b600080fd5b61006461005f366004610590565b6100ad565b005b6100646103a6565b6000546040805173ffffffffffffffffffffffffffffffffffffffff9092168252519081900360200190f35b6100646100a83660046105cc565b6103ba565b6100b5610471565b73ffffffffffffffffffffffffffffffffffffffff831660009081526001602090815260408083208484529091529020548390829060ff161561017f576040517f08c379a000000000000000000000000000000000000000000000000000000000815260206004820152602e60248201527f546865206e756d626572206f6620746865207472616e73616374696f6e20776160448201527f7320616c7265616479207573656400000000000000000000000000000000000060648201526084015b60405180910390fd5b73ffffffffffffffffffffffffffffffffffffffff85811660009081526001602081815260408084208885529091529182902080547fffffffffffffffffffffffffffffffffffffffffffffffffffffffffffffff00169091179055517f01ffc9a70000000000000000000000000000000000000000000000000000000081527f80ac58cd000000000000000000000000000000000000000000000000000000006004820152908516906301ffc9a790602401602060405180830381865afa15801561024f573d6000803e3d6000fd5b505050506040513d601f19601f8201168201806040525081019061027391906105ee565b6102d9576040517f08c379a000000000000000000000000000000000000000000000000000000000815260206004820152601760248201527f496e76616c69642045524337323120636f6e74726163740000000000000000006044820152606401610176565b6040517f6a62784200000000000000000000000000000000000000000000000000000000815273ffffffffffffffffffffffffffffffffffffffff8681166004830152851690636a62784290602401600060405180830381600087803b15801561034257600080fd5b505af1158015610356573d6000803e3d6000fd5b505060405173ffffffffffffffffffffffffffffffffffffffff8088169350881691507f160ce9ae7b2dfb262dfbcaa8a6aaa2ab10556cb5fdf6f7fb6a868d1262b30c8190600090a35050505050565b6103ae610471565b6103b860006104f2565b565b6103c2610471565b73ffffffffffffffffffffffffffffffffffffffff8116610465576040517f08c379a000000000000000000000000000000000000000000000000000000000815260206004820152602660248201527f4f776e61626c653a206e6577206f776e657220697320746865207a65726f206160448201527f64647265737300000000000000000000000000000000000000000000000000006064820152608401610176565b61046e816104f2565b50565b60005473ffffffffffffffffffffffffffffffffffffffff1633146103b8576040517f08c379a000000000000000000000000000000000000000000000000000000000815260206004820181905260248201527f4f776e61626c653a2063616c6c6572206973206e6f7420746865206f776e65726044820152606401610176565b6000805473ffffffffffffffffffffffffffffffffffffffff8381167fffffffffffffffffffffffff0000000000000000000000000000000000000000831681178455604051919092169283917f8be0079c531659141344cd1fd0a4f28419497f9722a3daafe3b4186f6b6457e09190a35050565b803573ffffffffffffffffffffffffffffffffffffffff8116811461058b57600080fd5b919050565b6000806000606084860312156105a557600080fd5b6105ae84610567565b92506105bc60208501610567565b9150604084013590509250925092565b6000602082840312156105de57600080fd5b6105e782610567565b9392505050565b60006020828403121561060057600080fd5b815180151581146105e757600080fdfea164736f6c6343000813000a",
  "linkReferences": {},
  "deployedLinkReferences": {}
}